{
  "contractName": "DAO",
  "abi": [
    {
      "inputs": [
        {
          "internalType": "string",
          "name": "_name",
          "type": "string"
        }
      ],
      "stateMutability": "nonpayable",
      "type": "constructor"
    },
    {
      "anonymous": false,
      "inputs": [
        {
          "indexed": false,
          "internalType": "address",
          "name": "_sender",
          "type": "address"
        },
        {
          "indexed": false,
          "internalType": "uint256",
          "name": "_value",
          "type": "uint256"
        }
      ],
      "name": "EthReceived",
      "type": "event"
    },
    {
      "anonymous": false,
      "inputs": [
        {
          "indexed": true,
          "internalType": "address",
          "name": "_referral",
          "type": "address"
        },
        {
          "indexed": true,
          "internalType": "address",
          "name": "_referrer",
          "type": "address"
        },
        {
          "indexed": false,
          "internalType": "uint256",
          "name": "_fee",
          "type": "uint256"
        }
      ],
      "name": "FeeReceived",
      "type": "event"
    },
    {
      "anonymous": false,
      "inputs": [
        {
          "indexed": true,
          "internalType": "address",
          "name": "_referral",
          "type": "address"
        },
        {
          "indexed": true,
          "internalType": "address",
          "name": "_referrer",
          "type": "address"
        }
      ],
      "name": "NewUser",
      "type": "event"
    },
    {
      "anonymous": false,
      "inputs": [
        {
          "indexed": true,
          "internalType": "address",
          "name": "_from",
          "type": "address"
        },
        {
          "indexed": true,
          "internalType": "address",
          "name": "_to",
          "type": "address"
        }
      ],
      "name": "OwnerChanged",
      "type": "event"
    },
    {
      "anonymous": false,
      "inputs": [
        {
          "indexed": false,
          "internalType": "address[]",
          "name": "_history",
          "type": "address[]"
        }
      ],
      "name": "OwnerHistory",
      "type": "event"
    },
    {
      "anonymous": false,
      "inputs": [
        {
          "indexed": true,
          "internalType": "address",
          "name": "_owner",
          "type": "address"
        },
        {
          "indexed": true,
          "internalType": "address",
          "name": "_coin",
          "type": "address"
        },
        {
          "indexed": false,
          "internalType": "string",
          "name": "_symbol",
          "type": "string"
        },
        {
          "indexed": false,
          "internalType": "uint256",
          "name": "_price",
          "type": "uint256"
        }
      ],
      "name": "TokenCreated",
      "type": "event"
    },
    {
      "stateMutability": "payable",
      "type": "fallback",
      "payable": true
    },
    {
      "inputs": [],
      "name": "getOwnerHistory",
      "outputs": [],
      "stateMutability": "nonpayable",
      "type": "function"
    },
    {
      "inputs": [],
      "name": "name",
      "outputs": [
        {
          "internalType": "string",
          "name": "",
          "type": "string"
        }
      ],
      "stateMutability": "view",
      "type": "function",
      "constant": true
    },
    {
      "inputs": [],
      "name": "owner",
      "outputs": [
        {
          "internalType": "address",
          "name": "",
          "type": "address"
        }
      ],
      "stateMutability": "view",
      "type": "function",
      "constant": true
    },
    {
      "inputs": [
        {
          "internalType": "address",
          "name": "_newOwner",
          "type": "address"
        }
      ],
      "name": "setOwner",
      "outputs": [],
      "stateMutability": "nonpayable",
      "type": "function"
    },
    {
      "stateMutability": "payable",
      "type": "receive",
      "payable": true
    },
    {
      "inputs": [],
      "name": "getBalance",
      "outputs": [
        {
          "internalType": "uint256",
          "name": "",
          "type": "uint256"
        }
      ],
      "stateMutability": "view",
      "type": "function",
      "constant": true
    },
    {
      "inputs": [
        {
          "internalType": "address",
          "name": "_partner",
          "type": "address"
        }
      ],
      "name": "getBalance",
      "outputs": [
        {
          "internalType": "uint256",
          "name": "",
          "type": "uint256"
        }
      ],
      "stateMutability": "view",
      "type": "function",
      "constant": true
    },
    {
      "inputs": [
        {
          "internalType": "address",
          "name": "_referrer",
          "type": "address"
        }
      ],
      "name": "register",
      "outputs": [
        {
          "internalType": "bool",
          "name": "",
          "type": "bool"
        }
      ],
      "stateMutability": "payable",
      "type": "function",
      "payable": true
    },
    {
      "inputs": [
        {
          "internalType": "string",
          "name": "_name",
          "type": "string"
        },
        {
          "internalType": "string",
          "name": "_symbol",
          "type": "string"
        },
        {
          "internalType": "uint256",
          "name": "_price",
          "type": "uint256"
        }
      ],
      "name": "createToken",
      "outputs": [],
      "stateMutability": "payable",
      "type": "function",
      "payable": true
    },
    {
      "inputs": [
        {
          "internalType": "string",
          "name": "_symbol",
          "type": "string"
        }
      ],
      "name": "buyToken",
      "outputs": [],
      "stateMutability": "payable",
      "type": "function",
      "payable": true
    },
    {
      "inputs": [
        {
          "internalType": "address",
          "name": "_coin",
          "type": "address"
        }
      ],
      "name": "buyToken",
      "outputs": [],
      "stateMutability": "payable",
      "type": "function",
      "payable": true
    },
    {
      "inputs": [
        {
          "internalType": "address payable",
          "name": "_to",
          "type": "address"
        },
        {
          "internalType": "uint256",
          "name": "_amount",
          "type": "uint256"
        }
      ],
      "name": "withdraw",
      "outputs": [],
      "stateMutability": "nonpayable",
      "type": "function"
    }
  ],
  "bytecode": "0x60806040523480156200001157600080fd5b5060405162003b6938038062003b6983398181016040528101906200003791906200021c565b336000806101000a81548173ffffffffffffffffffffffffffffffffffffffff021916908373ffffffffffffffffffffffffffffffffffffffff1602179055506001339080600181540180825580915050600190039060005260206000200160009091909190916101000a81548173ffffffffffffffffffffffffffffffffffffffff021916908373ffffffffffffffffffffffffffffffffffffffff1602179055508060029080519060200190620000f2929190620000fa565b5050620003d1565b8280546200010890620002f6565b90600052602060002090601f0160209004810192826200012c576000855562000178565b82601f106200014757805160ff191683800117855562000178565b8280016001018555821562000178579182015b82811115620001775782518255916020019190600101906200015a565b5b5090506200018791906200018b565b5090565b5b80821115620001a65760008160009055506001016200018c565b5090565b6000620001c1620001bb846200028a565b62000261565b905082815260208101848484011115620001da57600080fd5b620001e7848285620002c0565b509392505050565b600082601f8301126200020157600080fd5b815162000213848260208601620001aa565b91505092915050565b6000602082840312156200022f57600080fd5b600082015167ffffffffffffffff8111156200024a57600080fd5b6200025884828501620001ef565b91505092915050565b60006200026d62000280565b90506200027b82826200032c565b919050565b6000604051905090565b600067ffffffffffffffff821115620002a857620002a762000391565b5b620002b382620003c0565b9050602081019050919050565b60005b83811015620002e0578082015181840152602081019050620002c3565b83811115620002f0576000848401525b50505050565b600060028204905060018216806200030f57607f821691505b6020821081141562000326576200032562000362565b5b50919050565b6200033782620003c0565b810181811067ffffffffffffffff8211171562000359576200035862000391565b5b80604052505050565b7f4e487b7100000000000000000000000000000000000000000000000000000000600052602260045260246000fd5b7f4e487b7100000000000000000000000000000000000000000000000000000000600052604160045260246000fd5b6000601f19601f8301169050919050565b61378880620003e16000396000f3fe608060405260043610620000af5760003560e01c80635b060530116200006d5780635b060530146200024857806365d0dfc414620002685780637e72fb5214620002885780638da5cb5b14620002a8578063f3fef3a314620002d8578063f8b2cb4f14620003065762000168565b806306fdde03146200016a57806307c538d0146200019a57806312065fe014620001b457806313af403514620001e45780634420e48614620002125762000168565b36620001685734600460003373ffffffffffffffffffffffffffffffffffffffff1673ffffffffffffffffffffffffffffffffffffffff1681526020019081526020016000206001016000828254620001099190620019da565b925050819055503460036000828254620001249190620019da565b925050819055507f85177f287940f2f05425a4029951af0e047a7f9c4eaa9a6e6917bcd869f8669533346040516200015e92919062001760565b60405180910390a1005b005b3480156200017757600080fd5b50620001826200034a565b604051620001919190620017ce565b60405180910390f35b348015620001a757600080fd5b50620001b2620003e0565b005b348015620001c157600080fd5b50620001cc6200041c565b604051620001db9190620018f9565b60405180910390f35b348015620001f157600080fd5b506200021060048036038101906200020a9190620013fa565b6200053a565b005b6200023060048036038101906200022a9190620013fa565b62000686565b6040516200023f9190620017b1565b60405180910390f35b620002666004803603810190620002609190620014ac565b6200084f565b005b62000286600480360381019062000280919062001467565b62000b6f565b005b620002a66004803603810190620002a09190620013fa565b62000bbd565b005b348015620002b557600080fd5b50620002c062000e03565b604051620002cf919062001743565b60405180910390f35b348015620002e557600080fd5b50620003046004803603810190620002fe919062001426565b62000e27565b005b3480156200031357600080fd5b506200033260048036038101906200032c9190620013fa565b62001046565b604051620003419190620018f9565b60405180910390f35b60028054620003599062001c1e565b80601f0160208091040260200160405190810160405280929190818152602001828054620003879062001c1e565b8015620003d85780601f10620003ac57610100808354040283529160200191620003d8565b820191906000526020600020905b815481529060010190602001808311620003ba57829003601f168201915b505050505081565b7f08b9e09c86e9bdc0514700cd3daec33fd4f29f65d5b0c5f328defefeacd8086360016040516200041291906200178d565b60405180910390a1565b60008073ffffffffffffffffffffffffffffffffffffffff16600460003373ffffffffffffffffffffffffffffffffffffffff1673ffffffffffffffffffffffffffffffffffffffff16815260200190815260200160002060000160009054906101000a900473ffffffffffffffffffffffffffffffffffffffff1673ffffffffffffffffffffffffffffffffffffffff161415620004f2576040517f08c379a0000000000000000000000000000000000000000000000000000000008152600401620004e99062001893565b60405180910390fd5b600460003373ffffffffffffffffffffffffffffffffffffffff1673ffffffffffffffffffffffffffffffffffffffff16815260200190815260200160002060010154905090565b6200054462001166565b62000586576040517f08c379a00000000000000000000000000000000000000000000000000000000081526004016200057d90620018d7565b60405180910390fd5b806000806101000a81548173ffffffffffffffffffffffffffffffffffffffff021916908373ffffffffffffffffffffffffffffffffffffffff1602179055506001819080600181540180825580915050600190039060005260206000200160009091909190916101000a81548173ffffffffffffffffffffffffffffffffffffffff021916908373ffffffffffffffffffffffffffffffffffffffff1602179055508073ffffffffffffffffffffffffffffffffffffffff163373ffffffffffffffffffffffffffffffffffffffff167fb532073b38c83145e3e5135377a08bf9aab55bc0fd7c1179cd4fb995d2a5159c60405160405180910390a350565b60008073ffffffffffffffffffffffffffffffffffffffff168273ffffffffffffffffffffffffffffffffffffffff161415620006fa576040517f08c379a0000000000000000000000000000000000000000000000000000000008152600401620006f19062001871565b60405180910390fd5b6103e834101562000742576040517f08c379a00000000000000000000000000000000000000000000000000000000081526004016200073990620018b5565b60405180910390fd5b81600460003373ffffffffffffffffffffffffffffffffffffffff1673ffffffffffffffffffffffffffffffffffffffff16815260200190815260200160002060000160006101000a81548173ffffffffffffffffffffffffffffffffffffffff021916908373ffffffffffffffffffffffffffffffffffffffff1602179055503460036000828254620007d79190620019da565b92505081905550620007ec8234600a620011bd565b8173ffffffffffffffffffffffffffffffffffffffff163373ffffffffffffffffffffffffffffffffffffffff167fff3eabe1067b08ba8af3e8d3191eebeae9b35de7a7aeee40f2ad1ceb6a88760760405160405180910390a360019050919050565b600073ffffffffffffffffffffffffffffffffffffffff16600460003373ffffffffffffffffffffffffffffffffffffffff1673ffffffffffffffffffffffffffffffffffffffff16815260200190815260200160002060000160009054906101000a900473ffffffffffffffffffffffffffffffffffffffff1673ffffffffffffffffffffffffffffffffffffffff16141562000924576040517f08c379a00000000000000000000000000000000000000000000000000000000081526004016200091b9062001893565b60405180910390fd5b60643410156200093357600080fd5b6003546064600354620009479190620019da565b116200097c577f4e487b7100000000000000000000000000000000000000000000000000000000600052600160045260246000fd5b3460036000828254620009909190620019da565b92505081905550600083836012604051620009ab9062001335565b620009b993929190620017f2565b604051809103906000f080158015620009d6573d6000803e3d6000fd5b50905033600560008373ffffffffffffffffffffffffffffffffffffffff1673ffffffffffffffffffffffffffffffffffffffff16815260200190815260200160002060000160006101000a81548173ffffffffffffffffffffffffffffffffffffffff021916908373ffffffffffffffffffffffffffffffffffffffff16021790555081600560008373ffffffffffffffffffffffffffffffffffffffff1673ffffffffffffffffffffffffffffffffffffffff168152602001908152602001600020600101819055508060068460405162000ab491906200172a565b908152602001604051809103902060006101000a81548173ffffffffffffffffffffffffffffffffffffffff021916908373ffffffffffffffffffffffffffffffffffffffff1602179055508073ffffffffffffffffffffffffffffffffffffffff163373ffffffffffffffffffffffffffffffffffffffff167f989c950f789dd53617d32eabbd91a779b5ac03cd8caeb147f73c8c11739d0fb1858560405162000b619291906200183d565b60405180910390a350505050565b62000bba60068260405162000b8591906200172a565b908152602001604051809103902060009054906101000a900473ffffffffffffffffffffffffffffffffffffffff1662000bbd565b50565b60008190506000600560008473ffffffffffffffffffffffffffffffffffffffff1673ffffffffffffffffffffffffffffffffffffffff168152602001908152602001600020600101543462000c14919062001a37565b90508173ffffffffffffffffffffffffffffffffffffffff166340c10f1933836040518363ffffffff1660e01b815260040162000c5392919062001760565b600060405180830381600087803b15801562000c6e57600080fd5b505af115801562000c83573d6000803e3d6000fd5b505050506000600560008573ffffffffffffffffffffffffffffffffffffffff1673ffffffffffffffffffffffffffffffffffffffff16815260200190815260200160002060000160009054906101000a900473ffffffffffffffffffffffffffffffffffffffff169050606460373462000cff919062001a6f565b62000d0b919062001a37565b3462000d18919062001ad0565b600460008373ffffffffffffffffffffffffffffffffffffffff1673ffffffffffffffffffffffffffffffffffffffff168152602001908152602001600020600101600082825462000d6b9190620019da565b92505081905550346003600082825462000d869190620019da565b9250508190555062000dfd600460003373ffffffffffffffffffffffffffffffffffffffff1673ffffffffffffffffffffffffffffffffffffffff16815260200190815260200160002060000160009054906101000a900473ffffffffffffffffffffffffffffffffffffffff1634600a620011bd565b50505050565b60008054906101000a900473ffffffffffffffffffffffffffffffffffffffff1681565b600073ffffffffffffffffffffffffffffffffffffffff16600460003373ffffffffffffffffffffffffffffffffffffffff1673ffffffffffffffffffffffffffffffffffffffff16815260200190815260200160002060000160009054906101000a900473ffffffffffffffffffffffffffffffffffffffff1673ffffffffffffffffffffffffffffffffffffffff16141562000efc576040517f08c379a000000000000000000000000000000000000000000000000000000000815260040162000ef39062001893565b60405180910390fd5b80600460003373ffffffffffffffffffffffffffffffffffffffff1673ffffffffffffffffffffffffffffffffffffffff16815260200190815260200160002060010154101562000f84576040517f08c379a000000000000000000000000000000000000000000000000000000000815260040162000f7b90620018b5565b60405180910390fd5b80600460003373ffffffffffffffffffffffffffffffffffffffff1673ffffffffffffffffffffffffffffffffffffffff168152602001908152602001600020600101600082825462000fd8919062001ad0565b92505081905550806003600082825462000ff3919062001ad0565b925050819055508173ffffffffffffffffffffffffffffffffffffffff166108fc829081150290604051600060405180830381858888f1935050505015801562001041573d6000803e3d6000fd5b505050565b60008073ffffffffffffffffffffffffffffffffffffffff16600460003373ffffffffffffffffffffffffffffffffffffffff1673ffffffffffffffffffffffffffffffffffffffff16815260200190815260200160002060000160009054906101000a900473ffffffffffffffffffffffffffffffffffffffff1673ffffffffffffffffffffffffffffffffffffffff1614156200111c576040517f08c379a0000000000000000000000000000000000000000000000000000000008152600401620011139062001893565b60405180910390fd5b600460008373ffffffffffffffffffffffffffffffffffffffff1673ffffffffffffffffffffffffffffffffffffffff168152602001908152602001600020600101549050919050565b60008060009054906101000a900473ffffffffffffffffffffffffffffffffffffffff1673ffffffffffffffffffffffffffffffffffffffff163373ffffffffffffffffffffffffffffffffffffffff1614905090565b60006064838360ff16620011d2919062001a6f565b620011de919062001a37565b905080600460008673ffffffffffffffffffffffffffffffffffffffff1673ffffffffffffffffffffffffffffffffffffffff1681526020019081526020016000206001016000828254620012349190620019da565b925050819055508373ffffffffffffffffffffffffffffffffffffffff163373ffffffffffffffffffffffffffffffffffffffff167fb976ce971d9fe55f355fa5ff14a6ad1f520b70b700c7dcc5921ca0a64a2da26a836040516200129a9190620018f9565b60405180910390a38180620012af9062001bef565b92505060008260ff1611156200132f576200132e600460008673ffffffffffffffffffffffffffffffffffffffff1673ffffffffffffffffffffffffffffffffffffffff16815260200190815260200160002060000160009054906101000a900473ffffffffffffffffffffffffffffffffffffffff168484620011bd565b5b50505050565b6118c98062001e8a83390190565b60006200135a62001354846200193f565b62001916565b9050828152602081018484840111156200137357600080fd5b6200138084828562001baa565b509392505050565b600081359050620013998162001e3b565b92915050565b600081359050620013b08162001e55565b92915050565b600082601f830112620013c857600080fd5b8135620013da84826020860162001343565b91505092915050565b600081359050620013f48162001e6f565b92915050565b6000602082840312156200140d57600080fd5b60006200141d8482850162001388565b91505092915050565b600080604083850312156200143a57600080fd5b60006200144a858286016200139f565b92505060206200145d85828601620013e3565b9150509250929050565b6000602082840312156200147a57600080fd5b600082013567ffffffffffffffff8111156200149557600080fd5b620014a384828501620013b6565b91505092915050565b600080600060608486031215620014c257600080fd5b600084013567ffffffffffffffff811115620014dd57600080fd5b620014eb86828701620013b6565b935050602084013567ffffffffffffffff8111156200150957600080fd5b6200151786828701620013b6565b92505060406200152a86828701620013e3565b9150509250925092565b60006200154283836200154e565b60208301905092915050565b620015598162001b2b565b82525050565b6200156a8162001b2b565b82525050565b60006200157d826200198a565b620015898185620019ad565b9350620015968362001975565b8060005b83811015620015d657620015ae8262001d64565b620015ba888262001534565b9750620015c783620019a0565b9250506001810190506200159a565b5085935050505092915050565b620015ee8162001b53565b82525050565b620015ff8162001b96565b82525050565b6000620016128262001995565b6200161e8185620019be565b93506200163081856020860162001bb9565b6200163b8162001d79565b840191505092915050565b6000620016538262001995565b6200165f8185620019cf565b93506200167181856020860162001bb9565b80840191505092915050565b60006200168c601183620019be565b9150620016998262001d97565b602082019050919050565b6000620016b3600e83620019be565b9150620016c08262001dc0565b602082019050919050565b6000620016da600e83620019be565b9150620016e78262001de9565b602082019050919050565b600062001701600e83620019be565b91506200170e8262001e12565b602082019050919050565b620017248162001b7f565b82525050565b600062001738828462001646565b915081905092915050565b60006020820190506200175a60008301846200155f565b92915050565b60006040820190506200177760008301856200155f565b62001786602083018462001719565b9392505050565b60006020820190508181036000830152620017a9818462001570565b905092915050565b6000602082019050620017c86000830184620015e3565b92915050565b60006020820190508181036000830152620017ea818462001605565b905092915050565b600060608201905081810360008301526200180e818662001605565b9050818103602083015262001824818562001605565b9050620018356040830184620015f4565b949350505050565b6000604082019050818103600083015262001859818562001605565b90506200186a602083018462001719565b9392505050565b600060208201905081810360008301526200188c816200167d565b9050919050565b60006020820190508181036000830152620018ae81620016a4565b9050919050565b60006020820190508181036000830152620018d081620016cb565b9050919050565b60006020820190508181036000830152620018f281620016f2565b9050919050565b600060208201905062001910600083018462001719565b92915050565b60006200192262001935565b905062001930828262001c72565b919050565b6000604051905090565b600067ffffffffffffffff8211156200195d576200195c62001d35565b5b620019688262001d79565b9050602081019050919050565b60008190508160005260206000209050919050565b600081549050919050565b600081519050919050565b6000600182019050919050565b600082825260208201905092915050565b600082825260208201905092915050565b600081905092915050565b6000620019e78262001b7f565b9150620019f48362001b7f565b9250827fffffffffffffffffffffffffffffffffffffffffffffffffffffffffffffffff0382111562001a2c5762001a2b62001ca8565b5b828201905092915050565b600062001a448262001b7f565b915062001a518362001b7f565b92508262001a645762001a6362001cd7565b5b828204905092915050565b600062001a7c8262001b7f565b915062001a898362001b7f565b9250817fffffffffffffffffffffffffffffffffffffffffffffffffffffffffffffffff048311821515161562001ac55762001ac462001ca8565b5b828202905092915050565b600062001add8262001b7f565b915062001aea8362001b7f565b92508282101562001b005762001aff62001ca8565b5b828203905092915050565b600073ffffffffffffffffffffffffffffffffffffffff82169050919050565b600062001b388262001b5f565b9050919050565b600062001b4c8262001b5f565b9050919050565b60008115159050919050565b600073ffffffffffffffffffffffffffffffffffffffff82169050919050565b6000819050919050565b600060ff82169050919050565b600062001ba38262001b89565b9050919050565b82818337600083830152505050565b60005b8381101562001bd957808201518184015260208101905062001bbc565b8381111562001be9576000848401525b50505050565b600062001bfc8262001b89565b9150600082141562001c135762001c1262001ca8565b5b600182039050919050565b6000600282049050600182168062001c3757607f821691505b6020821081141562001c4e5762001c4d62001d06565b5b50919050565b600062001c6b62001c658362001d8a565b62001b0b565b9050919050565b62001c7d8262001d79565b810181811067ffffffffffffffff8211171562001c9f5762001c9e62001d35565b5b80604052505050565b7f4e487b7100000000000000000000000000000000000000000000000000000000600052601160045260246000fd5b7f4e487b7100000000000000000000000000000000000000000000000000000000600052601260045260246000fd5b7f4e487b7100000000000000000000000000000000000000000000000000000000600052602260045260246000fd5b7f4e487b7100000000000000000000000000000000000000000000000000000000600052604160045260246000fd5b600062001d72825462001c54565b9050919050565b6000601f19601f8301169050919050565b60008160001c9050919050565b7f52454645525245525f5245515549524544000000000000000000000000000000600082015250565b7f4e4f545f52454749535445524544000000000000000000000000000000000000600082015250565b7f4e4f545f454e4f5547485f455448000000000000000000000000000000000000600082015250565b7f4d4f445f4f4e4c595f4f574e4552000000000000000000000000000000000000600082015250565b62001e468162001b2b565b811462001e5257600080fd5b50565b62001e608162001b3f565b811462001e6c57600080fd5b50565b62001e7a8162001b7f565b811462001e8657600080fd5b5056fe60806040523480156200001157600080fd5b50604051620018c9380380620018c98339818101604052810190620000379190620001cc565b82828282600090805190602001906200005292919062000093565b5081600190805190602001906200006b92919062000093565b5080600260006101000a81548160ff021916908360ff160217905550505050505050620003eb565b828054620000a190620002f6565b90600052602060002090601f016020900481019282620000c5576000855562000111565b82601f10620000e057805160ff191683800117855562000111565b8280016001018555821562000111579182015b8281111562000110578251825591602001919060010190620000f3565b5b50905062000120919062000124565b5090565b5b808211156200013f57600081600090555060010162000125565b5090565b60006200015a62000154846200027d565b62000254565b9050828152602081018484840111156200017357600080fd5b62000180848285620002c0565b509392505050565b600082601f8301126200019a57600080fd5b8151620001ac84826020860162000143565b91505092915050565b600081519050620001c681620003d1565b92915050565b600080600060608486031215620001e257600080fd5b600084015167ffffffffffffffff811115620001fd57600080fd5b6200020b8682870162000188565b935050602084015167ffffffffffffffff8111156200022957600080fd5b620002378682870162000188565b92505060406200024a86828701620001b5565b9150509250925092565b60006200026062000273565b90506200026e82826200032c565b919050565b6000604051905090565b600067ffffffffffffffff8211156200029b576200029a62000391565b5b620002a682620003c0565b9050602081019050919050565b600060ff82169050919050565b60005b83811015620002e0578082015181840152602081019050620002c3565b83811115620002f0576000848401525b50505050565b600060028204905060018216806200030f57607f821691505b6020821081141562000326576200032562000362565b5b50919050565b6200033782620003c0565b810181811067ffffffffffffffff8211171562000359576200035862000391565b5b80604052505050565b7f4e487b7100000000000000000000000000000000000000000000000000000000600052602260045260246000fd5b7f4e487b7100000000000000000000000000000000000000000000000000000000600052604160045260246000fd5b6000601f19601f8301169050919050565b620003dc81620002b3565b8114620003e857600080fd5b50565b6114ce80620003fb6000396000f3fe608060405234801561001057600080fd5b506004361061009e5760003560e01c806340c10f191161006657806340c10f191461015d57806370a082311461017957806395d89b41146101a9578063a9059cbb146101c7578063dd62ed3e146101f75761009e565b806306fdde03146100a3578063095ea7b3146100c157806318160ddd146100f157806323b872dd1461010f578063313ce5671461013f575b600080fd5b6100ab610227565b6040516100b891906110d6565b60405180910390f35b6100db60048036038101906100d69190610f6a565b6102b9565b6040516100e891906110bb565b60405180910390f35b6100f961048a565b6040516101069190611198565b60405180910390f35b61012960048036038101906101249190610f1b565b610494565b60405161013691906110bb565b60405180910390f35b61014761089f565b60405161015491906111b3565b60405180910390f35b61017760048036038101906101729190610f6a565b6108b6565b005b610193600480360381019061018e9190610eb6565b6108c4565b6040516101a09190611198565b60405180910390f35b6101b161090d565b6040516101be91906110d6565b60405180910390f35b6101e160048036038101906101dc9190610f6a565b61099f565b6040516101ee91906110bb565b60405180910390f35b610211600480360381019061020c9190610edf565b610cbc565b60405161021e9190611198565b60405180910390f35b606060008054610236906112fc565b80601f0160208091040260200160405190810160405280929190818152602001828054610262906112fc565b80156102af5780601f10610284576101008083540402835291602001916102af565b820191906000526020600020905b81548152906001019060200180831161029257829003601f168201915b5050505050905090565b60008073ffffffffffffffffffffffffffffffffffffffff163373ffffffffffffffffffffffffffffffffffffffff16141561032a576040517f08c379a000000000000000000000000000000000000000000000000000000000815260040161032190611138565b60405180910390fd5b600073ffffffffffffffffffffffffffffffffffffffff168373ffffffffffffffffffffffffffffffffffffffff16141561039a576040517f08c379a000000000000000000000000000000000000000000000000000000000815260040161039190611118565b60405180910390fd5b81600560003373ffffffffffffffffffffffffffffffffffffffff1673ffffffffffffffffffffffffffffffffffffffff16815260200190815260200160002060008573ffffffffffffffffffffffffffffffffffffffff1673ffffffffffffffffffffffffffffffffffffffff168152602001908152602001600020819055508273ffffffffffffffffffffffffffffffffffffffff163373ffffffffffffffffffffffffffffffffffffffff167f8c5be1e5ebec7d5bd14f71427d1e84f3dd0314c0f7b2291e5b200ac8c7c3b925846040516104789190611198565b60405180910390a36001905092915050565b6000600354905090565b600081600460008673ffffffffffffffffffffffffffffffffffffffff1673ffffffffffffffffffffffffffffffffffffffff168152602001908152602001600020541015610518576040517f08c379a000000000000000000000000000000000000000000000000000000000815260040161050f90611178565b60405180910390fd5b81600560008673ffffffffffffffffffffffffffffffffffffffff1673ffffffffffffffffffffffffffffffffffffffff16815260200190815260200160002060008573ffffffffffffffffffffffffffffffffffffffff1673ffffffffffffffffffffffffffffffffffffffff1681526020019081526020016000205410156105d7576040517f08c379a00000000000000000000000000000000000000000000000000000000081526004016105ce906110f8565b60405180910390fd5b81600460008673ffffffffffffffffffffffffffffffffffffffff1673ffffffffffffffffffffffffffffffffffffffff168152602001908152602001600020546106229190611240565b600460008673ffffffffffffffffffffffffffffffffffffffff1673ffffffffffffffffffffffffffffffffffffffff1681526020019081526020016000205411610696577f4e487b7100000000000000000000000000000000000000000000000000000000600052600160045260246000fd5b600460008473ffffffffffffffffffffffffffffffffffffffff1673ffffffffffffffffffffffffffffffffffffffff1681526020019081526020016000205482600460008673ffffffffffffffffffffffffffffffffffffffff1673ffffffffffffffffffffffffffffffffffffffff1681526020019081526020016000205461072191906111ea565b11610755577f4e487b7100000000000000000000000000000000000000000000000000000000600052600160045260246000fd5b81600460008673ffffffffffffffffffffffffffffffffffffffff1673ffffffffffffffffffffffffffffffffffffffff16815260200190815260200160002060008282546107a49190611240565b9250508190555081600460008573ffffffffffffffffffffffffffffffffffffffff1673ffffffffffffffffffffffffffffffffffffffff16815260200190815260200160002060008282546107fa91906111ea565b9250508190555081600560008673ffffffffffffffffffffffffffffffffffffffff1673ffffffffffffffffffffffffffffffffffffffff16815260200190815260200160002060008573ffffffffffffffffffffffffffffffffffffffff1673ffffffffffffffffffffffffffffffffffffffff168152602001908152602001600020600082825461088d9190611240565b92505081905550600190509392505050565b6000600260009054906101000a900460ff16905090565b6108c08282610d43565b5050565b6000600460008373ffffffffffffffffffffffffffffffffffffffff1673ffffffffffffffffffffffffffffffffffffffff168152602001908152602001600020549050919050565b60606001805461091c906112fc565b80601f0160208091040260200160405190810160405280929190818152602001828054610948906112fc565b80156109955780601f1061096a57610100808354040283529160200191610995565b820191906000526020600020905b81548152906001019060200180831161097857829003601f168201915b5050505050905090565b600081600460003373ffffffffffffffffffffffffffffffffffffffff1673ffffffffffffffffffffffffffffffffffffffff168152602001908152602001600020541015610a23576040517f08c379a0000000000000000000000000000000000000000000000000000000008152600401610a1a90611178565b60405180910390fd5b81600460003373ffffffffffffffffffffffffffffffffffffffff1673ffffffffffffffffffffffffffffffffffffffff16815260200190815260200160002054610a6e9190611240565b600460003373ffffffffffffffffffffffffffffffffffffffff1673ffffffffffffffffffffffffffffffffffffffff1681526020019081526020016000205411610ae2577f4e487b7100000000000000000000000000000000000000000000000000000000600052600160045260246000fd5b600460008473ffffffffffffffffffffffffffffffffffffffff1673ffffffffffffffffffffffffffffffffffffffff1681526020019081526020016000205482600460008673ffffffffffffffffffffffffffffffffffffffff1673ffffffffffffffffffffffffffffffffffffffff16815260200190815260200160002054610b6d91906111ea565b11610ba1577f4e487b7100000000000000000000000000000000000000000000000000000000600052600160045260246000fd5b81600460003373ffffffffffffffffffffffffffffffffffffffff1673ffffffffffffffffffffffffffffffffffffffff1681526020019081526020016000206000828254610bf09190611240565b9250508190555081600460008573ffffffffffffffffffffffffffffffffffffffff1673ffffffffffffffffffffffffffffffffffffffff1681526020019081526020016000206000828254610c4691906111ea565b925050819055508273ffffffffffffffffffffffffffffffffffffffff163373ffffffffffffffffffffffffffffffffffffffff167fddf252ad1be2c89b69c2b068fc378daa952ba7f163c4a11628f55a4df523b3ef84604051610caa9190611198565b60405180910390a36001905092915050565b6000600560008473ffffffffffffffffffffffffffffffffffffffff1673ffffffffffffffffffffffffffffffffffffffff16815260200190815260200160002060008373ffffffffffffffffffffffffffffffffffffffff1673ffffffffffffffffffffffffffffffffffffffff16815260200190815260200160002054905092915050565b600073ffffffffffffffffffffffffffffffffffffffff168273ffffffffffffffffffffffffffffffffffffffff161415610db3576040517f08c379a0000000000000000000000000000000000000000000000000000000008152600401610daa90611158565b60405180910390fd5b8060036000828254610dc591906111ea565b9250508190555080600460008473ffffffffffffffffffffffffffffffffffffffff1673ffffffffffffffffffffffffffffffffffffffff1681526020019081526020016000206000828254610e1b91906111ea565b925050819055508173ffffffffffffffffffffffffffffffffffffffff16600073ffffffffffffffffffffffffffffffffffffffff167fddf252ad1be2c89b69c2b068fc378daa952ba7f163c4a11628f55a4df523b3ef83604051610e809190611198565b60405180910390a35050565b600081359050610e9b8161146a565b92915050565b600081359050610eb081611481565b92915050565b600060208284031215610ec857600080fd5b6000610ed684828501610e8c565b91505092915050565b60008060408385031215610ef257600080fd5b6000610f0085828601610e8c565b9250506020610f1185828601610e8c565b9150509250929050565b600080600060608486031215610f3057600080fd5b6000610f3e86828701610e8c565b9350506020610f4f86828701610e8c565b9250506040610f6086828701610ea1565b9150509250925092565b60008060408385031215610f7d57600080fd5b6000610f8b85828601610e8c565b9250506020610f9c85828601610ea1565b9150509250929050565b610faf81611286565b82525050565b6000610fc0826111ce565b610fca81856111d9565b9350610fda8185602086016112c9565b610fe38161138c565b840191505092915050565b6000610ffb600b836111d9565b91506110068261139d565b602082019050919050565b600061101e600f836111d9565b9150611029826113c6565b602082019050919050565b60006110416011836111d9565b915061104c826113ef565b602082019050919050565b6000611064601e836111d9565b915061106f82611418565b602082019050919050565b60006110876010836111d9565b915061109282611441565b602082019050919050565b6110a6816112b2565b82525050565b6110b5816112bc565b82525050565b60006020820190506110d06000830184610fa6565b92915050565b600060208201905081810360008301526110f08184610fb5565b905092915050565b6000602082019050818103600083015261111181610fee565b9050919050565b6000602082019050818103600083015261113181611011565b9050919050565b6000602082019050818103600083015261115181611034565b9050919050565b6000602082019050818103600083015261117181611057565b9050919050565b600060208201905081810360008301526111918161107a565b9050919050565b60006020820190506111ad600083018461109d565b92915050565b60006020820190506111c860008301846110ac565b92915050565b600081519050919050565b600082825260208201905092915050565b60006111f5826112b2565b9150611200836112b2565b9250827fffffffffffffffffffffffffffffffffffffffffffffffffffffffffffffffff038211156112355761123461132e565b5b828201905092915050565b600061124b826112b2565b9150611256836112b2565b9250828210156112695761126861132e565b5b828203905092915050565b600061127f82611292565b9050919050565b60008115159050919050565b600073ffffffffffffffffffffffffffffffffffffffff82169050919050565b6000819050919050565b600060ff82169050919050565b60005b838110156112e75780820151818401526020810190506112cc565b838111156112f6576000848401525b50505050565b6000600282049050600182168061131457607f821691505b602082108114156113285761132761135d565b5b50919050565b7f4e487b7100000000000000000000000000000000000000000000000000000000600052601160045260246000fd5b7f4e487b7100000000000000000000000000000000000000000000000000000000600052602260045260246000fd5b6000601f19601f8301169050919050565b7f4e4f545f414c4c4f574544000000000000000000000000000000000000000000600082015250565b7f544f5f5a45524f5f414444524553530000000000000000000000000000000000600082015250565b7f46524f4d5f5a45524f5f41444452455353000000000000000000000000000000600082015250565b7f455243323a206d696e7420746f20746865207a65726f20616464726573730000600082015250565b7f4e4f545f454e4f5547485f46554e445300000000000000000000000000000000600082015250565b61147381611274565b811461147e57600080fd5b50565b61148a816112b2565b811461149557600080fd5b5056fea2646970667358221220d2960e1862aeac3e8fd45b4c19785d54fe78e23e522280af4b94e9749e46df9c64736f6c63430008040033a26469706673582212206682ecbae1d11e9e4e19dd868541b9c209e824e279643e058930d915b30b23bb64736f6c63430008040033",
  "immutableReferences": {},
  "source": "// SPDX-License-Identifier: GPL-3.0\npragma solidity ^0.8.4;\n\nimport \"./IERC20.sol\";\nimport \"./ERC20.sol\";\nimport \"./Owner.sol\";\n\ncontract DAOToken is ERC20 {\n    constructor(string memory _name, string memory _symbol, uint8 _decimals) ERC20(_name, _symbol, _decimals) {}\n    function mint(address _account, uint256 _amount) external {\n        _mint(_account, _amount);\n    }\n}\n\ncontract DAO is Owner {\n    string public name;\n    uint private _totalEth;\n    \n    struct Partner {\n        address referrer;\n        uint balance;\n    }\n\n    struct Coin {\n        address owner;\n        uint price;\n    }\n\n    mapping(address => Partner) private _partners;\n    mapping(address => Coin) private _coinOwners;\n    mapping(string => address) private _coins;\n\n    event NewUser(address indexed _referral, address indexed _referrer);\n    event TokenCreated(address indexed _owner, address indexed _coin, string _symbol, uint _price);\n    event FeeReceived(address indexed _referral, address indexed _referrer, uint _fee);\n    event EthReceived(address _sender, uint _value);\n\n    constructor(string memory _name) {\n        name = _name;\n    }\n\n    modifier onlyPartner() {\n        require(_partners[msg.sender].referrer != address(0), \"NOT_REGISTERED\");\n        _;\n    }\n\n    modifier onlyCoinOwner(address _coin) {\n        require(_coinOwners[_coin].owner == msg.sender);\n        _;\n    }\n    \n    function getBalance() external view onlyPartner returns(uint) {\n        return _partners[msg.sender].balance;\n    }\n    \n    function getBalance(address _partner) external view onlyPartner returns(uint) {\n        return _partners[_partner].balance;\n    }\n\n    function register(address _referrer) external payable returns(bool) {\n        require(_referrer != address(0), \"REFERRER_REQUIRED\");\n        require(msg.value >= 1000, \"NOT_ENOUGH_ETH\");\n        _partners[msg.sender].referrer = _referrer;\n        _totalEth += msg.value;\n        _payToReferrer(_referrer, msg.value, 10);\n        emit NewUser(msg.sender, _referrer);\n        return true;\n    }\n\n    function createToken(string memory _name, string memory _symbol, uint _price) external payable onlyPartner {\n        require(msg.value >= 100); // TODO: add error message\n        assert(_totalEth + 100 > _totalEth);\n        _totalEth += msg.value;\n        DAOToken coin = new DAOToken(_name, _symbol, 18);\n        _coinOwners[address(coin)].owner = msg.sender;\n        _coinOwners[address(coin)].price = _price;\n        _coins[_symbol] = address(coin);\n        emit TokenCreated(msg.sender, address(coin), _symbol, _price);\n    }\n    \n    function buyToken(address _coin) public payable {\n        DAOToken ctr = DAOToken(_coin);\n        uint amount = msg.value / _coinOwners[_coin].price;\n        ctr.mint(msg.sender, amount);\n        address partner = _coinOwners[_coin].owner;\n        _partners[partner].balance += msg.value - (msg.value * 55 / 100);\n        _totalEth += msg.value;\n        _payToReferrer(_partners[msg.sender].referrer, msg.value, 10);\n    }\n    \n    function buyToken(string memory _symbol) external payable {\n        buyToken(_coins[_symbol]);\n    }\n    \n    \n    function withdraw(address payable _to, uint _amount) external onlyPartner {\n        require(_partners[msg.sender].balance >= _amount, \"NOT_ENOUGH_ETH\");\n        _partners[msg.sender].balance -= _amount;\n        _totalEth -= _amount;\n        _to.transfer(_amount);\n    }\n\n    function _payToReferrer(address _referrer, uint _amount, uint8 _step) private {\n        uint fee = _step * _amount / 100;\n        _partners[_referrer].balance += fee;\n        emit FeeReceived(msg.sender, _referrer, fee);\n        _step--;\n        if (_step > 0) {\n            _payToReferrer(_partners[_referrer].referrer, _amount, _step);\n        }\n    }\n    \n    \n    receive() external payable {\n        _partners[msg.sender].balance += msg.value;\n        _totalEth += msg.value;\n        emit EthReceived(msg.sender, msg.value);\n    }\n\n    fallback() external payable {\n\n    }\n}\n\n// add pause & resume contract\n",
  "sourcePath": "/Users/vertix/Desktop/dao-app/contracts/DAO.sol",
  "compiler": {
    "name": "solc",
    "version": "0.8.4+commit.c7e474f2.Emscripten.clang"
  },
  "schemaVersion": "3.4.0",
  "updatedAt": "2021-05-12T14:09:12.223Z",
  "networkType": "ethereum",
  "devdoc": {
    "kind": "dev",
    "methods": {},
    "version": 1
  },
  "userdoc": {
    "kind": "user",
    "methods": {},
    "version": 1
  }
}