{
  "contractName": "Owner",
  "abi": [
    {
      "inputs": [],
      "stateMutability": "nonpayable",
      "type": "constructor"
    },
    {
      "anonymous": false,
      "inputs": [
        {
          "indexed": true,
          "internalType": "address",
          "name": "_from",
          "type": "address"
        },
        {
          "indexed": true,
          "internalType": "address",
          "name": "_to",
          "type": "address"
        }
      ],
      "name": "OwnerChanged",
      "type": "event"
    },
    {
      "anonymous": false,
      "inputs": [
        {
          "indexed": false,
          "internalType": "address[]",
          "name": "_history",
          "type": "address[]"
        }
      ],
      "name": "OwnerHistory",
      "type": "event"
    },
    {
      "inputs": [],
      "name": "owner",
      "outputs": [
        {
          "internalType": "address",
          "name": "",
          "type": "address"
        }
      ],
      "stateMutability": "view",
      "type": "function",
      "constant": true
    },
    {
      "inputs": [],
      "name": "getOwnerHistory",
      "outputs": [],
      "stateMutability": "nonpayable",
      "type": "function"
    },
    {
      "inputs": [
        {
          "internalType": "address",
          "name": "_newOwner",
          "type": "address"
        }
      ],
      "name": "setOwner",
      "outputs": [],
      "stateMutability": "nonpayable",
      "type": "function"
    }
  ],
  "bytecode": "0x608060405234801561001057600080fd5b50336000806101000a81548173ffffffffffffffffffffffffffffffffffffffff021916908373ffffffffffffffffffffffffffffffffffffffff1602179055506001339080600181540180825580915050600190039060005260206000200160009091909190916101000a81548173ffffffffffffffffffffffffffffffffffffffff021916908373ffffffffffffffffffffffffffffffffffffffff160217905550610530806100c36000396000f3fe608060405234801561001057600080fd5b50600436106100415760003560e01c806307c538d01461004657806313af4035146100505780638da5cb5b1461006c575b600080fd5b61004e61008a565b005b61006a6004803603810190610065919061029b565b6100c4565b005b61007461020b565b6040516100819190610382565b60405180910390f35b7f08b9e09c86e9bdc0514700cd3daec33fd4f29f65d5b0c5f328defefeacd8086360016040516100ba919061039d565b60405180910390a1565b6100cc61022f565b61010b576040517f08c379a0000000000000000000000000000000000000000000000000000000008152600401610102906103bf565b60405180910390fd5b806000806101000a81548173ffffffffffffffffffffffffffffffffffffffff021916908373ffffffffffffffffffffffffffffffffffffffff1602179055506001819080600181540180825580915050600190039060005260206000200160009091909190916101000a81548173ffffffffffffffffffffffffffffffffffffffff021916908373ffffffffffffffffffffffffffffffffffffffff1602179055508073ffffffffffffffffffffffffffffffffffffffff163373ffffffffffffffffffffffffffffffffffffffff167fb532073b38c83145e3e5135377a08bf9aab55bc0fd7c1179cd4fb995d2a5159c60405160405180910390a350565b60008054906101000a900473ffffffffffffffffffffffffffffffffffffffff1681565b60008060009054906101000a900473ffffffffffffffffffffffffffffffffffffffff1673ffffffffffffffffffffffffffffffffffffffff163373ffffffffffffffffffffffffffffffffffffffff1614905090565b600081359050610295816104e3565b92915050565b6000602082840312156102ad57600080fd5b60006102bb84828501610286565b91505092915050565b60006102d083836102dc565b60208301905092915050565b6102e58161044e565b82525050565b6102f48161044e565b82525050565b6000610305826103f4565b61030f818561040c565b935061031a836103df565b8060005b838110156103525761032f8261049a565b61033988826102c4565b9750610344836103ff565b92505060018101905061031e565b5085935050505092915050565b600061036c600e8361041d565b9150610377826104ba565b602082019050919050565b600060208201905061039760008301846102eb565b92915050565b600060208201905081810360008301526103b781846102fa565b905092915050565b600060208201905081810360008301526103d88161035f565b9050919050565b60008190508160005260206000209050919050565b600081549050919050565b6000600182019050919050565b600082825260208201905092915050565b600082825260208201905092915050565b600073ffffffffffffffffffffffffffffffffffffffff82169050919050565b600061045982610460565b9050919050565b600073ffffffffffffffffffffffffffffffffffffffff82169050919050565b600061049361048e836104ad565b61042e565b9050919050565b60006104a68254610480565b9050919050565b60008160001c9050919050565b7f4d4f445f4f4e4c595f4f574e4552000000000000000000000000000000000000600082015250565b6104ec8161044e565b81146104f757600080fd5b5056fea264697066735822122027f03ba40308c873be608c88d898eee41dbe9aa02dcba28f8e81a4a48da9c83e64736f6c63430008040033",
  "immutableReferences": {},
  "source": "// SPDX-License-Identifier: GPL-3.0\npragma solidity ^0.8.4;\n\ncontract Owner {\n\n    address public owner;\n    address[] private _ownerHistory;\n\n    event OwnerChanged(address indexed _from, address indexed _to);\n    event OwnerHistory(address[] _history);\n\n    constructor() {\n        owner = msg.sender;\n        _ownerHistory.push(msg.sender);\n    }\n\n    modifier onlyOwner {\n        require(_isOwner(), \"MOD_ONLY_OWNER\");\n        _;\n    }\n\n    function getOwnerHistory() external {\n        emit OwnerHistory(_ownerHistory);\n    }\n\n    function setOwner(address _newOwner) external onlyOwner {\n        owner = _newOwner;\n        _ownerHistory.push(_newOwner);\n        emit OwnerChanged(msg.sender, _newOwner);\n    }\n\n    function _isOwner() internal view returns(bool) {\n        return msg.sender == owner;\n    }\n    \n}",
  "sourcePath": "/Users/vertix/Desktop/dao-app/contracts/Owner.sol",
  "compiler": {
    "name": "solc",
    "version": "0.8.4+commit.c7e474f2.Emscripten.clang"
  },
  "schemaVersion": "3.4.0",
  "updatedAt": "2021-05-12T14:09:11.805Z",
  "networkType": "ethereum",
  "devdoc": {
    "kind": "dev",
    "methods": {},
    "version": 1
  },
  "userdoc": {
    "kind": "user",
    "methods": {},
    "version": 1
  }
}